{"abi":[{"type":"constructor","inputs":[],"stateMutability":"nonpayable"},{"type":"receive","stateMutability":"payable"},{"type":"function","name":"addQuiz","inputs":[{"name":"q","type":"tuple","internalType":"struct Quiz.Quiz_item","components":[{"name":"id","type":"uint256","internalType":"uint256"},{"name":"question","type":"string","internalType":"string"},{"name":"answer","type":"string","internalType":"string"},{"name":"min_bet","type":"uint256","internalType":"uint256"},{"name":"max_bet","type":"uint256","internalType":"uint256"}]}],"outputs":[],"stateMutability":"nonpayable"},{"type":"function","name":"betToPlay","inputs":[{"name":"quizId","type":"uint256","internalType":"uint256"}],"outputs":[],"stateMutability":"payable"},{"type":"function","name":"bets","inputs":[{"name":"","type":"uint256","internalType":"uint256"},{"name":"","type":"address","internalType":"address"}],"outputs":[{"name":"","type":"uint256","internalType":"uint256"}],"stateMutability":"view"},{"type":"function","name":"claim","inputs":[],"outputs":[],"stateMutability":"nonpayable"},{"type":"function","name":"getAnswer","inputs":[{"name":"quizId","type":"uint256","internalType":"uint256"}],"outputs":[{"name":"","type":"string","internalType":"string"}],"stateMutability":"view"},{"type":"function","name":"getQuiz","inputs":[{"name":"quizId","type":"uint256","internalType":"uint256"}],"outputs":[{"name":"","type":"tuple","internalType":"struct Quiz.Quiz_item","components":[{"name":"id","type":"uint256","internalType":"uint256"},{"name":"question","type":"string","internalType":"string"},{"name":"answer","type":"string","internalType":"string"},{"name":"min_bet","type":"uint256","internalType":"uint256"},{"name":"max_bet","type":"uint256","internalType":"uint256"}]}],"stateMutability":"view"},{"type":"function","name":"getQuizNum","inputs":[],"outputs":[{"name":"","type":"uint256","internalType":"uint256"}],"stateMutability":"view"},{"type":"function","name":"owner","inputs":[],"outputs":[{"name":"","type":"address","internalType":"address"}],"stateMutability":"view"},{"type":"function","name":"quiz_list","inputs":[{"name":"","type":"uint256","internalType":"uint256"}],"outputs":[{"name":"id","type":"uint256","internalType":"uint256"},{"name":"question","type":"string","internalType":"string"},{"name":"answer","type":"string","internalType":"string"},{"name":"min_bet","type":"uint256","internalType":"uint256"},{"name":"max_bet","type":"uint256","internalType":"uint256"}],"stateMutability":"view"},{"type":"function","name":"rewards","inputs":[{"name":"","type":"address","internalType":"address"}],"outputs":[{"name":"","type":"uint256","internalType":"uint256"}],"stateMutability":"view"},{"type":"function","name":"solveQuiz","inputs":[{"name":"quizId","type":"uint256","internalType":"uint256"},{"name":"ans","type":"string","internalType":"string"}],"outputs":[{"name":"","type":"bool","internalType":"bool"}],"stateMutability":"nonpayable"},{"type":"function","name":"vault_balance","inputs":[],"outputs":[{"name":"","type":"uint256","internalType":"uint256"}],"stateMutability":"view"}],"bytecode":{"object":"0x608060405234801561000f575f5ffd5b50600280546001600160a01b031916331790556040805160a081018252606060208083018281528385018381525f938501848152608086019485526001808752875180890189526005815264312b313d3f60d81b818701529093528651808801909752918652601960f91b92860192909252939052670de0b6b3a7640000909252671bc16d674ec800009091526100a5816100ab565b50610311565b6002546001600160a01b031633146101155760405162461bcd60e51b8152602060048201526024808201527f6e6578742063616c6c20646964206e6f7420726576657274206173206578706560448201526318dd195960e21b606482015260840160405180910390fd5b600380546001810182555f91909152815160059091027fc2575a0e9e593c00f959f8c92f12db2869c3395a3b0502d05e2516446f71f85b810191825560208301518392917fc2575a0e9e593c00f959f8c92f12db2869c3395a3b0502d05e2516446f71f85c01906101869082610257565b506040820151600282019061019b9082610257565b5060608201516003820155608090910151600490910155505f805460010181558052565b634e487b7160e01b5f52604160045260245ffd5b600181811c908216806101e757607f821691505b60208210810361020557634e487b7160e01b5f52602260045260245ffd5b50919050565b601f82111561025257805f5260205f20601f840160051c810160208510156102305750805b601f840160051c820191505b8181101561024f575f815560010161023c565b50505b505050565b81516001600160401b03811115610270576102706101bf565b6102848161027e84546101d3565b8461020b565b6020601f8211600181146102b6575f831561029f5750848201515b5f19600385901b1c1916600184901b17845561024f565b5f84815260208120601f198516915b828110156102e557878501518255602094850194600190920191016102c5565b508482101561030257868401515f19600387901b60f8161c191681555b50505050600190811b01905550565b6111c28061031e5f395ff3fe6080604052600436106100a8575f3560e01c8063a3f7e09611610062578063a3f7e09614610195578063b0fb68be146101c1578063b5ab58dc146101f1578063c0da916f1461021d578063f101b3f114610231578063f644b3bb14610250575f5ffd5b80630700037d146100b35780634e71d92d146100f157806354c63f82146101075780637487361f1461011a5780638da5cb5b146101495780638f7b096114610180575f5ffd5b366100af57005b5f5ffd5b3480156100be575f5ffd5b506100de6100cd366004610c5b565b60046020525f908152604090205481565b6040519081526020015b60405180910390f35b3480156100fc575f5ffd5b5061010561026f565b005b610105610115366004610c7b565b610365565b348015610125575f5ffd5b50610139610134366004610d5a565b61057b565b60405190151581526020016100e8565b348015610154575f5ffd5b50600254610168906001600160a01b031681565b6040516001600160a01b0390911681526020016100e8565b34801561018b575f5ffd5b506100de60015481565b3480156101a0575f5ffd5b506101b46101af366004610c7b565b610744565b6040516100e89190610dcc565b3480156101cc575f5ffd5b506101e06101db366004610c7b565b6108fe565b6040516100e8959493929190610e2f565b3480156101fc575f5ffd5b5061021061020b366004610c7b565b610a4a565b6040516100e89190610e6e565b348015610228575f5ffd5b506003546100de565b34801561023c575f5ffd5b5061010561024b366004610e80565b610b06565b34801561025b575f5ffd5b506100de61026a366004610f37565b610c16565b335f90815260046020526040902054806102c65760405162461bcd60e51b81526020600482015260136024820152724e6f207265776172647320746f20636c61696d60681b60448201526064015b60405180910390fd5b335f818152600460205260408082208290555190919083908381818185875af1925050503d805f8114610314576040519150601f19603f3d011682016040523d82523d5f602084013e610319565b606091505b50509050806103615760405162461bcd60e51b81526020600482015260146024820152732330b4b632b2103a379039b2b7321022ba3432b960611b60448201526064016102bd565b5050565b5f6003610373600184610f75565b8154811061038357610383610f88565b905f5260205f2090600502016040518060a00160405290815f82015481526020016001820180546103b390610f9c565b80601f01602080910402602001604051908101604052809291908181526020018280546103df90610f9c565b801561042a5780601f106104015761010080835404028352916020019161042a565b820191905f5260205f20905b81548152906001019060200180831161040d57829003601f168201915b5050505050815260200160028201805461044390610f9c565b80601f016020809104026020016040519081016040528092919081815260200182805461046f90610f9c565b80156104ba5780601f10610491576101008083540402835291602001916104ba565b820191905f5260205f20905b81548152906001019060200180831161049d57829003601f168201915b50505050508152602001600382015481526020016004820154815250509050806060015134101580156104f1575080608001513411155b6105305760405162461bcd60e51b815260206004820152601060248201526f426574206f7574206f662072616e676560801b60448201526064016102bd565b345f61053d600185610f75565b8154811061054d5761054d610f88565b5f91825260208083203384529091019052604081208054909190610572908490610fd4565b90915550505050565b5f8080610589600186610f75565b8154811061059957610599610f88565b5f9182526020808320338452909101905260409020549050806105fe5760405162461bcd60e51b815260206004820152601d60248201527f596f752068617665206e6f7420626574206f6e2074686973207175697a00000060448201526064016102bd565b600361060b600186610f75565b8154811061061b5761061b610f88565b905f5260205f20906005020160020160405160200161063a9190610fe7565b60405160208183030381529060405280519060200120836040516020016106619190611058565b60405160208183030381529060405280519060200120036106e85761068781600261106e565b335f90815260046020526040812080549091906106a5908490610fd4565b909155505f9050806106b8600187610f75565b815481106106c8576106c8610f88565b5f918252602080832033845290910190526040902055506001905061073e565b8060015f8282546106f99190610fd4565b909155505f90508061070c600187610f75565b8154811061071c5761071c610f88565b5f918252602080832033845290910190526040812091909155915061073e9050565b92915050565b6107736040518060a001604052805f815260200160608152602001606081526020015f81526020015f81525090565b5f6003610781600185610f75565b8154811061079157610791610f88565b905f5260205f2090600502016040518060a00160405290815f82015481526020016001820180546107c190610f9c565b80601f01602080910402602001604051908101604052809291908181526020018280546107ed90610f9c565b80156108385780601f1061080f57610100808354040283529160200191610838565b820191905f5260205f20905b81548152906001019060200180831161081b57829003601f168201915b5050505050815260200160028201805461085190610f9c565b80601f016020809104026020016040519081016040528092919081815260200182805461087d90610f9c565b80156108c85780601f1061089f576101008083540402835291602001916108c8565b820191905f5260205f20905b8154815290600101906020018083116108ab57829003601f168201915b50505091835250506003820154602080830191909152600490920154604091820152805191820181525f82528201529392505050565b6003818154811061090d575f80fd5b5f918252602090912060059091020180546001820180549193509061093190610f9c565b80601f016020809104026020016040519081016040528092919081815260200182805461095d90610f9c565b80156109a85780601f1061097f576101008083540402835291602001916109a8565b820191905f5260205f20905b81548152906001019060200180831161098b57829003601f168201915b5050505050908060020180546109bd90610f9c565b80601f01602080910402602001604051908101604052809291908181526020018280546109e990610f9c565b8015610a345780601f10610a0b57610100808354040283529160200191610a34565b820191905f5260205f20905b815481529060010190602001808311610a1757829003601f168201915b5050505050908060030154908060040154905085565b60606003610a59600184610f75565b81548110610a6957610a69610f88565b905f5260205f2090600502016002018054610a8390610f9c565b80601f0160208091040260200160405190810160405280929190818152602001828054610aaf90610f9c565b8015610afa5780601f10610ad157610100808354040283529160200191610afa565b820191905f5260205f20905b815481529060010190602001808311610add57829003601f168201915b50505050509050919050565b6002546001600160a01b03163314610b6c5760405162461bcd60e51b8152602060048201526024808201527f6e6578742063616c6c20646964206e6f7420726576657274206173206578706560448201526318dd195960e21b60648201526084016102bd565b600380546001810182555f91909152815160059091027fc2575a0e9e593c00f959f8c92f12db2869c3395a3b0502d05e2516446f71f85b810191825560208301518392917fc2575a0e9e593c00f959f8c92f12db2869c3395a3b0502d05e2516446f71f85c0190610bdd90826110d1565b5060408201516002820190610bf290826110d1565b5060608201516003820155608090910151600490910155505f805460010181558052565b5f8281548110610c24575f80fd5b905f5260205f2001602052805f5260405f205f91509150505481565b80356001600160a01b0381168114610c56575f5ffd5b919050565b5f60208284031215610c6b575f5ffd5b610c7482610c40565b9392505050565b5f60208284031215610c8b575f5ffd5b5035919050565b634e487b7160e01b5f52604160045260245ffd5b60405160a0810167ffffffffffffffff81118282101715610cc957610cc9610c92565b60405290565b5f82601f830112610cde575f5ffd5b813567ffffffffffffffff811115610cf857610cf8610c92565b604051601f8201601f19908116603f0116810167ffffffffffffffff81118282101715610d2757610d27610c92565b604052818152838201602001851015610d3e575f5ffd5b816020850160208301375f918101602001919091529392505050565b5f5f60408385031215610d6b575f5ffd5b82359150602083013567ffffffffffffffff811115610d88575f5ffd5b610d9485828601610ccf565b9150509250929050565b5f81518084528060208401602086015e5f602082860101526020601f19601f83011685010191505092915050565b60208152815160208201525f602083015160a06040840152610df160c0840182610d9e565b90506040840151601f19848303016060850152610e0e8282610d9e565b91505060608401516080840152608084015160a08401528091505092915050565b85815260a060208201525f610e4760a0830187610d9e565b8281036040840152610e598187610d9e565b60608401959095525050608001529392505050565b602081525f610c746020830184610d9e565b5f60208284031215610e90575f5ffd5b813567ffffffffffffffff811115610ea6575f5ffd5b820160a08185031215610eb7575f5ffd5b610ebf610ca6565b81358152602082013567ffffffffffffffff811115610edc575f5ffd5b610ee886828501610ccf565b602083015250604082013567ffffffffffffffff811115610f07575f5ffd5b610f1386828501610ccf565b60408301525060608281013590820152608091820135918101919091529392505050565b5f5f60408385031215610f48575f5ffd5b82359150610f5860208401610c40565b90509250929050565b634e487b7160e01b5f52601160045260245ffd5b8181038181111561073e5761073e610f61565b634e487b7160e01b5f52603260045260245ffd5b600181811c90821680610fb057607f821691505b602082108103610fce57634e487b7160e01b5f52602260045260245ffd5b50919050565b8082018082111561073e5761073e610f61565b5f5f8354610ff481610f9c565b60018216801561100b57600181146110205761104d565b60ff198316865281151582028601935061104d565b865f5260205f205f5b8381101561104557815488820152600190910190602001611029565b505081860193505b509195945050505050565b5f82518060208501845e5f920191825250919050565b808202811582820484141761073e5761073e610f61565b601f8211156110cc57805f5260205f20601f840160051c810160208510156110aa5750805b601f840160051c820191505b818110156110c9575f81556001016110b6565b50505b505050565b815167ffffffffffffffff8111156110eb576110eb610c92565b6110ff816110f98454610f9c565b84611085565b6020601f821160018114611131575f831561111a5750848201515b5f19600385901b1c1916600184901b1784556110c9565b5f84815260208120601f198516915b828110156111605787850151825560209485019460019092019101611140565b508482101561117d57868401515f19600387901b60f8161c191681555b50505050600190811b0190555056fea2646970667358221220e39173e86096bd232cd8182bd7cffdefaff6a63cdc32b170e45b63c58f78571264736f6c634300081c0033","linkReferences":{}},"methodIdentifiers":{"addQuiz((uint256,string,string,uint256,uint256))":"f101b3f1","betToPlay(uint256)":"54c63f82","bets(uint256,address)":"f644b3bb","claim()":"4e71d92d","getAnswer(uint256)":"b5ab58dc","getQuiz(uint256)":"a3f7e096","getQuizNum()":"c0da916f","owner()":"8da5cb5b","quiz_list(uint256)":"b0fb68be","rewards(address)":"0700037d","solveQuiz(uint256,string)":"7487361f","vault_balance()":"8f7b0961"},"id":18}